{
  "abi": [
    {
      "inputs": [
        {
          "internalType": "string",
          "name": "name_",
          "type": "string"
        },
        {
          "internalType": "string",
          "name": "symbol_",
          "type": "string"
        }
      ],
      "stateMutability": "nonpayable",
      "type": "constructor"
    },
    {
      "inputs": [
        {
          "internalType": "address",
          "name": "caller",
          "type": "address"
        },
        {
          "internalType": "uint256",
          "name": "accountId",
          "type": "uint256"
        }
      ],
      "name": "AC_CannotChangeToSameManager",
      "type": "error"
    },
    {
      "inputs": [
        {
          "internalType": "address",
          "name": "caller",
          "type": "address"
        },
        {
          "internalType": "uint256",
          "name": "accountId",
          "type": "uint256"
        }
      ],
      "name": "AC_CannotTransferAssetToOneself",
      "type": "error"
    },
    {
      "inputs": [],
      "name": "AC_InvalidNonce",
      "type": "error"
    },
    {
      "inputs": [],
      "name": "AC_InvalidPermitSignature",
      "type": "error"
    },
    {
      "inputs": [
        {
          "internalType": "address",
          "name": "spender",
          "type": "address"
        },
        {
          "internalType": "uint256",
          "name": "accountId",
          "type": "uint256"
        },
        {
          "internalType": "address",
          "name": "owner",
          "type": "address"
        },
        {
          "internalType": "contract IManager",
          "name": "manager",
          "type": "address"
        },
        {
          "internalType": "address",
          "name": "approved",
          "type": "address"
        }
      ],
      "name": "AC_NotOwnerOrERC721Approved",
      "type": "error"
    },
    {
      "inputs": [],
      "name": "AC_OnlyAsset",
      "type": "error"
    },
    {
      "inputs": [],
      "name": "AC_OnlyManager",
      "type": "error"
    },
    {
      "inputs": [],
      "name": "AC_SignatureExpired",
      "type": "error"
    },
    {
      "inputs": [],
      "name": "AC_TooManyTransfers",
      "type": "error"
    },
    {
      "inputs": [],
      "name": "DL_DeltasTooLong",
      "type": "error"
    },
    {
      "inputs": [
        {
          "internalType": "address",
          "name": "caller",
          "type": "address"
        },
        {
          "internalType": "uint256",
          "name": "accountId",
          "type": "uint256"
        },
        {
          "internalType": "int256",
          "name": "amount",
          "type": "int256"
        },
        {
          "internalType": "uint256",
          "name": "subIdAllowance",
          "type": "uint256"
        },
        {
          "internalType": "uint256",
          "name": "assetAllowance",
          "type": "uint256"
        }
      ],
      "name": "NotEnoughSubIdOrAssetAllowances",
      "type": "error"
    },
    {
      "anonymous": false,
      "inputs": [
        {
          "indexed": true,
          "internalType": "address",
          "name": "owner",
          "type": "address"
        },
        {
          "indexed": true,
          "internalType": "uint256",
          "name": "accountId",
          "type": "uint256"
        },
        {
          "indexed": true,
          "internalType": "address",
          "name": "manager",
          "type": "address"
        }
      ],
      "name": "AccountBurned",
      "type": "event"
    },
    {
      "anonymous": false,
      "inputs": [
        {
          "indexed": true,
          "internalType": "address",
          "name": "owner",
          "type": "address"
        },
        {
          "indexed": true,
          "internalType": "uint256",
          "name": "accountId",
          "type": "uint256"
        },
        {
          "indexed": true,
          "internalType": "address",
          "name": "manager",
          "type": "address"
        }
      ],
      "name": "AccountCreated",
      "type": "event"
    },
    {
      "anonymous": false,
      "inputs": [
        {
          "indexed": true,
          "internalType": "uint256",
          "name": "accountId",
          "type": "uint256"
        },
        {
          "indexed": true,
          "internalType": "address",
          "name": "oldManager",
          "type": "address"
        },
        {
          "indexed": true,
          "internalType": "address",
          "name": "newManager",
          "type": "address"
        }
      ],
      "name": "AccountManagerChanged",
      "type": "event"
    },
    {
      "anonymous": false,
      "inputs": [
        {
          "indexed": true,
          "internalType": "address",
          "name": "owner",
          "type": "address"
        },
        {
          "indexed": true,
          "internalType": "address",
          "name": "approved",
          "type": "address"
        },
        {
          "indexed": true,
          "internalType": "uint256",
          "name": "tokenId",
          "type": "uint256"
        }
      ],
      "name": "Approval",
      "type": "event"
    },
    {
      "anonymous": false,
      "inputs": [
        {
          "indexed": true,
          "internalType": "address",
          "name": "owner",
          "type": "address"
        },
        {
          "indexed": true,
          "internalType": "address",
          "name": "operator",
          "type": "address"
        },
        {
          "indexed": false,
          "internalType": "bool",
          "name": "approved",
          "type": "bool"
        }
      ],
      "name": "ApprovalForAll",
      "type": "event"
    },
    {
      "anonymous": false,
      "inputs": [
        {
          "indexed": true,
          "internalType": "uint256",
          "name": "fromAcc",
          "type": "uint256"
        },
        {
          "indexed": true,
          "internalType": "uint256",
          "name": "toAcc",
          "type": "uint256"
        },
        {
          "indexed": false,
          "internalType": "contract IAsset",
          "name": "asset",
          "type": "address"
        },
        {
          "indexed": false,
          "internalType": "uint256",
          "name": "subId",
          "type": "uint256"
        },
        {
          "indexed": false,
          "internalType": "int256",
          "name": "amount",
          "type": "int256"
        },
        {
          "indexed": false,
          "internalType": "bytes32",
          "name": "assetData",
          "type": "bytes32"
        },
        {
          "indexed": false,
          "internalType": "uint256",
          "name": "tradeId",
          "type": "uint256"
        }
      ],
      "name": "AssetTransferred",
      "type": "event"
    },
    {
      "anonymous": false,
      "inputs": [
        {
          "indexed": true,
          "internalType": "uint256",
          "name": "accountId",
          "type": "uint256"
        },
        {
          "indexed": true,
          "internalType": "address",
          "name": "manager",
          "type": "address"
        },
        {
          "indexed": true,
          "internalType": "bytes32",
          "name": "assetAndSubId",
          "type": "bytes32"
        },
        {
          "indexed": false,
          "internalType": "int256",
          "name": "amount",
          "type": "int256"
        },
        {
          "indexed": false,
          "internalType": "int256",
          "name": "preBalance",
          "type": "int256"
        },
        {
          "indexed": false,
          "internalType": "int256",
          "name": "postBalance",
          "type": "int256"
        },
        {
          "indexed": false,
          "internalType": "uint256",
          "name": "tradeId",
          "type": "uint256"
        }
      ],
      "name": "BalanceAdjusted",
      "type": "event"
    },
    {
      "anonymous": false,
      "inputs": [
        {
          "indexed": true,
          "internalType": "address",
          "name": "from",
          "type": "address"
        },
        {
          "indexed": true,
          "internalType": "address",
          "name": "to",
          "type": "address"
        },
        {
          "indexed": true,
          "internalType": "uint256",
          "name": "tokenId",
          "type": "uint256"
        }
      ],
      "name": "Transfer",
      "type": "event"
    },
    {
      "anonymous": false,
      "inputs": [
        {
          "indexed": false,
          "internalType": "address",
          "name": "owner",
          "type": "address"
        },
        {
          "indexed": false,
          "internalType": "uint256",
          "name": "wordPos",
          "type": "uint256"
        },
        {
          "indexed": false,
          "internalType": "uint256",
          "name": "mask",
          "type": "uint256"
        }
      ],
      "name": "UnorderedNonceInvalidated",
      "type": "event"
    },
    {
      "inputs": [
        {
          "internalType": "address",
          "name": "to",
          "type": "address"
        },
        {
          "internalType": "uint256",
          "name": "tokenId",
          "type": "uint256"
        }
      ],
      "name": "approve",
      "outputs": [],
      "stateMutability": "nonpayable",
      "type": "function"
    },
    {
      "inputs": [
        {
          "components": [
            {
              "internalType": "uint256",
              "name": "acc",
              "type": "uint256"
            },
            {
              "internalType": "contract IAsset",
              "name": "asset",
              "type": "address"
            },
            {
              "internalType": "uint256",
              "name": "subId",
              "type": "uint256"
            },
            {
              "internalType": "int256",
              "name": "amount",
              "type": "int256"
            },
            {
              "internalType": "bytes32",
              "name": "assetData",
              "type": "bytes32"
            }
          ],
          "internalType": "struct ISubAccounts.AssetAdjustment",
          "name": "adjustment",
          "type": "tuple"
        },
        {
          "internalType": "bool",
          "name": "triggerAssetHook",
          "type": "bool"
        },
        {
          "internalType": "bytes",
          "name": "managerData",
          "type": "bytes"
        }
      ],
      "name": "assetAdjustment",
      "outputs": [
        {
          "internalType": "int256",
          "name": "postAdjustmentBalance",
          "type": "int256"
        }
      ],
      "stateMutability": "nonpayable",
      "type": "function"
    },
    {
      "inputs": [
        {
          "internalType": "uint256",
          "name": "accountId",
          "type": "uint256"
        },
        {
          "internalType": "contract IAsset",
          "name": "asset",
          "type": "address"
        },
        {
          "internalType": "uint256",
          "name": "subId",
          "type": "uint256"
        }
      ],
      "name": "balanceAndOrder",
      "outputs": [
        {
          "internalType": "int240",
          "name": "balance",
          "type": "int240"
        },
        {
          "internalType": "uint16",
          "name": "order",
          "type": "uint16"
        }
      ],
      "stateMutability": "view",
      "type": "function"
    },
    {
      "inputs": [
        {
          "internalType": "address",
          "name": "owner",
          "type": "address"
        }
      ],
      "name": "balanceOf",
      "outputs": [
        {
          "internalType": "uint256",
          "name": "",
          "type": "uint256"
        }
      ],
      "stateMutability": "view",
      "type": "function"
    },
    {
      "inputs": [
        {
          "internalType": "address",
          "name": "owner",
          "type": "address"
        },
        {
          "internalType": "contract IManager",
          "name": "_manager",
          "type": "address"
        }
      ],
      "name": "createAccount",
      "outputs": [
        {
          "internalType": "uint256",
          "name": "newId",
          "type": "uint256"
        }
      ],
      "stateMutability": "nonpayable",
      "type": "function"
    },
    {
      "inputs": [
        {
          "internalType": "address",
          "name": "owner",
          "type": "address"
        },
        {
          "internalType": "address",
          "name": "spender",
          "type": "address"
        },
        {
          "internalType": "contract IManager",
          "name": "_manager",
          "type": "address"
        }
      ],
      "name": "createAccountWithApproval",
      "outputs": [
        {
          "internalType": "uint256",
          "name": "newId",
          "type": "uint256"
        }
      ],
      "stateMutability": "nonpayable",
      "type": "function"
    },
    {
      "inputs": [],
      "name": "domainSeparator",
      "outputs": [
        {
          "internalType": "bytes32",
          "name": "",
          "type": "bytes32"
        }
      ],
      "stateMutability": "view",
      "type": "function"
    },
    {
      "inputs": [
        {
          "internalType": "uint256",
          "name": "accountId",
          "type": "uint256"
        }
      ],
      "name": "getAccountBalances",
      "outputs": [
        {
          "components": [
            {
              "internalType": "contract IAsset",
              "name": "asset",
              "type": "address"
            },
            {
              "internalType": "uint256",
              "name": "subId",
              "type": "uint256"
            },
            {
              "internalType": "int256",
              "name": "balance",
              "type": "int256"
            }
          ],
          "internalType": "struct ISubAccounts.AssetBalance[]",
          "name": "assetBalances",
          "type": "tuple[]"
        }
      ],
      "stateMutability": "view",
      "type": "function"
    },
    {
      "inputs": [
        {
          "internalType": "uint256",
          "name": "tokenId",
          "type": "uint256"
        }
      ],
      "name": "getApproved",
      "outputs": [
        {
          "internalType": "address",
          "name": "",
          "type": "address"
        }
      ],
      "stateMutability": "view",
      "type": "function"
    },
    {
      "inputs": [
        {
          "internalType": "uint256",
          "name": "accountId",
          "type": "uint256"
        },
        {
          "internalType": "contract IAsset",
          "name": "asset",
          "type": "address"
        },
        {
          "internalType": "uint256",
          "name": "subId",
          "type": "uint256"
        }
      ],
      "name": "getBalance",
      "outputs": [
        {
          "internalType": "int256",
          "name": "balance",
          "type": "int256"
        }
      ],
      "stateMutability": "view",
      "type": "function"
    },
    {
      "inputs": [
        {
          "internalType": "uint256",
          "name": "accountId",
          "type": "uint256"
        }
      ],
      "name": "getUniqueAssets",
      "outputs": [
        {
          "internalType": "address[]",
          "name": "uniqueAssets",
          "type": "address[]"
        }
      ],
      "stateMutability": "view",
      "type": "function"
    },
    {
      "inputs": [
        {
          "internalType": "uint256",
          "name": "accountId",
          "type": "uint256"
        },
        {
          "internalType": "uint256",
          "name": "",
          "type": "uint256"
        }
      ],
      "name": "heldAssets",
      "outputs": [
        {
          "internalType": "contract IAsset",
          "name": "asset",
          "type": "address"
        },
        {
          "internalType": "uint96",
          "name": "subId",
          "type": "uint96"
        }
      ],
      "stateMutability": "view",
      "type": "function"
    },
    {
      "inputs": [
        {
          "internalType": "uint256",
          "name": "wordPos",
          "type": "uint256"
        },
        {
          "internalType": "uint256",
          "name": "mask",
          "type": "uint256"
        }
      ],
      "name": "invalidateUnorderedNonces",
      "outputs": [],
      "stateMutability": "nonpayable",
      "type": "function"
    },
    {
      "inputs": [
        {
          "internalType": "address",
          "name": "owner",
          "type": "address"
        },
        {
          "internalType": "address",
          "name": "operator",
          "type": "address"
        }
      ],
      "name": "isApprovedForAll",
      "outputs": [
        {
          "internalType": "bool",
          "name": "",
          "type": "bool"
        }
      ],
      "stateMutability": "view",
      "type": "function"
    },
    {
      "inputs": [],
      "name": "lastAccountId",
      "outputs": [
        {
          "internalType": "uint256",
          "name": "",
          "type": "uint256"
        }
      ],
      "stateMutability": "view",
      "type": "function"
    },
    {
      "inputs": [
        {
          "internalType": "uint256",
          "name": "accountId",
          "type": "uint256"
        }
      ],
      "name": "lastAccountTradeId",
      "outputs": [
        {
          "internalType": "uint256",
          "name": "tradeId",
          "type": "uint256"
        }
      ],
      "stateMutability": "view",
      "type": "function"
    },
    {
      "inputs": [],
      "name": "lastTradeId",
      "outputs": [
        {
          "internalType": "uint256",
          "name": "",
          "type": "uint256"
        }
      ],
      "stateMutability": "view",
      "type": "function"
    },
    {
      "inputs": [
        {
          "internalType": "uint256",
          "name": "accountId",
          "type": "uint256"
        }
      ],
      "name": "manager",
      "outputs": [
        {
          "internalType": "contract IManager",
          "name": "",
          "type": "address"
        }
      ],
      "stateMutability": "view",
      "type": "function"
    },
    {
      "inputs": [
        {
          "components": [
            {
              "internalType": "uint256",
              "name": "acc",
              "type": "uint256"
            },
            {
              "internalType": "contract IAsset",
              "name": "asset",
              "type": "address"
            },
            {
              "internalType": "uint256",
              "name": "subId",
              "type": "uint256"
            },
            {
              "internalType": "int256",
              "name": "amount",
              "type": "int256"
            },
            {
              "internalType": "bytes32",
              "name": "assetData",
              "type": "bytes32"
            }
          ],
          "internalType": "struct ISubAccounts.AssetAdjustment",
          "name": "adjustment",
          "type": "tuple"
        }
      ],
      "name": "managerAdjustment",
      "outputs": [
        {
          "internalType": "int256",
          "name": "postAdjustmentBalance",
          "type": "int256"
        }
      ],
      "stateMutability": "nonpayable",
      "type": "function"
    },
    {
      "inputs": [],
      "name": "name",
      "outputs": [
        {
          "internalType": "string",
          "name": "",
          "type": "string"
        }
      ],
      "stateMutability": "view",
      "type": "function"
    },
    {
      "inputs": [
        {
          "internalType": "uint256",
          "name": "accountId",
          "type": "uint256"
        },
        {
          "internalType": "address",
          "name": "owner",
          "type": "address"
        },
        {
          "internalType": "contract IAsset",
          "name": "asset",
          "type": "address"
        },
        {
          "internalType": "address",
          "name": "delegate",
          "type": "address"
        }
      ],
      "name": "negativeAssetAllowance",
      "outputs": [
        {
          "internalType": "uint256",
          "name": "",
          "type": "uint256"
        }
      ],
      "stateMutability": "view",
      "type": "function"
    },
    {
      "inputs": [
        {
          "internalType": "uint256",
          "name": "accountId",
          "type": "uint256"
        },
        {
          "internalType": "address",
          "name": "owner",
          "type": "address"
        },
        {
          "internalType": "contract IAsset",
          "name": "asset",
          "type": "address"
        },
        {
          "internalType": "uint256",
          "name": "subId",
          "type": "uint256"
        },
        {
          "internalType": "address",
          "name": "delegate",
          "type": "address"
        }
      ],
      "name": "negativeSubIdAllowance",
      "outputs": [
        {
          "internalType": "uint256",
          "name": "",
          "type": "uint256"
        }
      ],
      "stateMutability": "view",
      "type": "function"
    },
    {
      "inputs": [
        {
          "internalType": "address",
          "name": "account",
          "type": "address"
        },
        {
          "internalType": "uint256",
          "name": "wordPosition",
          "type": "uint256"
        }
      ],
      "name": "nonceBitmap",
      "outputs": [
        {
          "internalType": "uint256",
          "name": "nonce",
          "type": "uint256"
        }
      ],
      "stateMutability": "view",
      "type": "function"
    },
    {
      "inputs": [
        {
          "internalType": "uint256",
          "name": "tokenId",
          "type": "uint256"
        }
      ],
      "name": "ownerOf",
      "outputs": [
        {
          "internalType": "address",
          "name": "",
          "type": "address"
        }
      ],
      "stateMutability": "view",
      "type": "function"
    },
    {
      "inputs": [
        {
          "components": [
            {
              "internalType": "address",
              "name": "delegate",
              "type": "address"
            },
            {
              "internalType": "uint256",
              "name": "nonce",
              "type": "uint256"
            },
            {
              "internalType": "uint256",
              "name": "accountId",
              "type": "uint256"
            },
            {
              "internalType": "uint256",
              "name": "deadline",
              "type": "uint256"
            },
            {
              "components": [
                {
                  "internalType": "contract IAsset",
                  "name": "asset",
                  "type": "address"
                },
                {
                  "internalType": "uint256",
                  "name": "positive",
                  "type": "uint256"
                },
                {
                  "internalType": "uint256",
                  "name": "negative",
                  "type": "uint256"
                }
              ],
              "internalType": "struct IAllowances.AssetAllowance[]",
              "name": "assetAllowances",
              "type": "tuple[]"
            },
            {
              "components": [
                {
                  "internalType": "contract IAsset",
                  "name": "asset",
                  "type": "address"
                },
                {
                  "internalType": "uint256",
                  "name": "subId",
                  "type": "uint256"
                },
                {
                  "internalType": "uint256",
                  "name": "positive",
                  "type": "uint256"
                },
                {
                  "internalType": "uint256",
                  "name": "negative",
                  "type": "uint256"
                }
              ],
              "internalType": "struct IAllowances.SubIdAllowance[]",
              "name": "subIdAllowances",
              "type": "tuple[]"
            }
          ],
          "internalType": "struct IAllowances.PermitAllowance",
          "name": "allowancePermit",
          "type": "tuple"
        },
        {
          "internalType": "bytes",
          "name": "signature",
          "type": "bytes"
        }
      ],
      "name": "permit",
      "outputs": [],
      "stateMutability": "nonpayable",
      "type": "function"
    },
    {
      "inputs": [
        {
          "components": [
            {
              "internalType": "uint256",
              "name": "fromAcc",
              "type": "uint256"
            },
            {
              "internalType": "uint256",
              "name": "toAcc",
              "type": "uint256"
            },
            {
              "internalType": "contract IAsset",
              "name": "asset",
              "type": "address"
            },
            {
              "internalType": "uint256",
              "name": "subId",
              "type": "uint256"
            },
            {
              "internalType": "int256",
              "name": "amount",
              "type": "int256"
            },
            {
              "internalType": "bytes32",
              "name": "assetData",
              "type": "bytes32"
            }
          ],
          "internalType": "struct ISubAccounts.AssetTransfer",
          "name": "assetTransfer",
          "type": "tuple"
        },
        {
          "internalType": "bytes",
          "name": "managerData",
          "type": "bytes"
        },
        {
          "components": [
            {
              "internalType": "address",
              "name": "delegate",
              "type": "address"
            },
            {
              "internalType": "uint256",
              "name": "nonce",
              "type": "uint256"
            },
            {
              "internalType": "uint256",
              "name": "accountId",
              "type": "uint256"
            },
            {
              "internalType": "uint256",
              "name": "deadline",
              "type": "uint256"
            },
            {
              "components": [
                {
                  "internalType": "contract IAsset",
                  "name": "asset",
                  "type": "address"
                },
                {
                  "internalType": "uint256",
                  "name": "positive",
                  "type": "uint256"
                },
                {
                  "internalType": "uint256",
                  "name": "negative",
                  "type": "uint256"
                }
              ],
              "internalType": "struct IAllowances.AssetAllowance[]",
              "name": "assetAllowances",
              "type": "tuple[]"
            },
            {
              "components": [
                {
                  "internalType": "contract IAsset",
                  "name": "asset",
                  "type": "address"
                },
                {
                  "internalType": "uint256",
                  "name": "subId",
                  "type": "uint256"
                },
                {
                  "internalType": "uint256",
                  "name": "positive",
                  "type": "uint256"
                },
                {
                  "internalType": "uint256",
                  "name": "negative",
                  "type": "uint256"
                }
              ],
              "internalType": "struct IAllowances.SubIdAllowance[]",
              "name": "subIdAllowances",
              "type": "tuple[]"
            }
          ],
          "internalType": "struct IAllowances.PermitAllowance",
          "name": "allowancePermit",
          "type": "tuple"
        },
        {
          "internalType": "bytes",
          "name": "signature",
          "type": "bytes"
        }
      ],
      "name": "permitAndSubmitTransfer",
      "outputs": [
        {
          "internalType": "uint256",
          "name": "tradeId",
          "type": "uint256"
        }
      ],
      "stateMutability": "nonpayable",
      "type": "function"
    },
    {
      "inputs": [
        {
          "components": [
            {
              "internalType": "uint256",
              "name": "fromAcc",
              "type": "uint256"
            },
            {
              "internalType": "uint256",
              "name": "toAcc",
              "type": "uint256"
            },
            {
              "internalType": "contract IAsset",
              "name": "asset",
              "type": "address"
            },
            {
              "internalType": "uint256",
              "name": "subId",
              "type": "uint256"
            },
            {
              "internalType": "int256",
              "name": "amount",
              "type": "int256"
            },
            {
              "internalType": "bytes32",
              "name": "assetData",
              "type": "bytes32"
            }
          ],
          "internalType": "struct ISubAccounts.AssetTransfer[]",
          "name": "assetTransfers",
          "type": "tuple[]"
        },
        {
          "internalType": "bytes",
          "name": "managerData",
          "type": "bytes"
        },
        {
          "components": [
            {
              "internalType": "address",
              "name": "delegate",
              "type": "address"
            },
            {
              "internalType": "uint256",
              "name": "nonce",
              "type": "uint256"
            },
            {
              "internalType": "uint256",
              "name": "accountId",
              "type": "uint256"
            },
            {
              "internalType": "uint256",
              "name": "deadline",
              "type": "uint256"
            },
            {
              "components": [
                {
                  "internalType": "contract IAsset",
                  "name": "asset",
                  "type": "address"
                },
                {
                  "internalType": "uint256",
                  "name": "positive",
                  "type": "uint256"
                },
                {
                  "internalType": "uint256",
                  "name": "negative",
                  "type": "uint256"
                }
              ],
              "internalType": "struct IAllowances.AssetAllowance[]",
              "name": "assetAllowances",
              "type": "tuple[]"
            },
            {
              "components": [
                {
                  "internalType": "contract IAsset",
                  "name": "asset",
                  "type": "address"
                },
                {
                  "internalType": "uint256",
                  "name": "subId",
                  "type": "uint256"
                },
                {
                  "internalType": "uint256",
                  "name": "positive",
                  "type": "uint256"
                },
                {
                  "internalType": "uint256",
                  "name": "negative",
                  "type": "uint256"
                }
              ],
              "internalType": "struct IAllowances.SubIdAllowance[]",
              "name": "subIdAllowances",
              "type": "tuple[]"
            }
          ],
          "internalType": "struct IAllowances.PermitAllowance[]",
          "name": "allowancePermits",
          "type": "tuple[]"
        },
        {
          "internalType": "bytes[]",
          "name": "signatures",
          "type": "bytes[]"
        }
      ],
      "name": "permitAndSubmitTransfers",
      "outputs": [
        {
          "internalType": "uint256",
          "name": "tradeId",
          "type": "uint256"
        }
      ],
      "stateMutability": "nonpayable",
      "type": "function"
    },
    {
      "inputs": [
        {
          "internalType": "uint256",
          "name": "accountId",
          "type": "uint256"
        },
        {
          "internalType": "address",
          "name": "owner",
          "type": "address"
        },
        {
          "internalType": "contract IAsset",
          "name": "asset",
          "type": "address"
        },
        {
          "internalType": "address",
          "name": "delegate",
          "type": "address"
        }
      ],
      "name": "positiveAssetAllowance",
      "outputs": [
        {
          "internalType": "uint256",
          "name": "",
          "type": "uint256"
        }
      ],
      "stateMutability": "view",
      "type": "function"
    },
    {
      "inputs": [
        {
          "internalType": "uint256",
          "name": "accountId",
          "type": "uint256"
        },
        {
          "internalType": "address",
          "name": "owner",
          "type": "address"
        },
        {
          "internalType": "contract IAsset",
          "name": "asset",
          "type": "address"
        },
        {
          "internalType": "uint256",
          "name": "subId",
          "type": "uint256"
        },
        {
          "internalType": "address",
          "name": "delegate",
          "type": "address"
        }
      ],
      "name": "positiveSubIdAllowance",
      "outputs": [
        {
          "internalType": "uint256",
          "name": "",
          "type": "uint256"
        }
      ],
      "stateMutability": "view",
      "type": "function"
    },
    {
      "inputs": [
        {
          "internalType": "address",
          "name": "from",
          "type": "address"
        },
        {
          "internalType": "address",
          "name": "to",
          "type": "address"
        },
        {
          "internalType": "uint256",
          "name": "tokenId",
          "type": "uint256"
        }
      ],
      "name": "safeTransferFrom",
      "outputs": [],
      "stateMutability": "nonpayable",
      "type": "function"
    },
    {
      "inputs": [
        {
          "internalType": "address",
          "name": "from",
          "type": "address"
        },
        {
          "internalType": "address",
          "name": "to",
          "type": "address"
        },
        {
          "internalType": "uint256",
          "name": "tokenId",
          "type": "uint256"
        },
        {
          "internalType": "bytes",
          "name": "data",
          "type": "bytes"
        }
      ],
      "name": "safeTransferFrom",
      "outputs": [],
      "stateMutability": "nonpayable",
      "type": "function"
    },
    {
      "inputs": [
        {
          "internalType": "address",
          "name": "operator",
          "type": "address"
        },
        {
          "internalType": "bool",
          "name": "approved",
          "type": "bool"
        }
      ],
      "name": "setApprovalForAll",
      "outputs": [],
      "stateMutability": "nonpayable",
      "type": "function"
    },
    {
      "inputs": [
        {
          "internalType": "uint256",
          "name": "accountId",
          "type": "uint256"
        },
        {
          "internalType": "address",
          "name": "delegate",
          "type": "address"
        },
        {
          "components": [
            {
              "internalType": "contract IAsset",
              "name": "asset",
              "type": "address"
            },
            {
              "internalType": "uint256",
              "name": "positive",
              "type": "uint256"
            },
            {
              "internalType": "uint256",
              "name": "negative",
              "type": "uint256"
            }
          ],
          "internalType": "struct IAllowances.AssetAllowance[]",
          "name": "allowances",
          "type": "tuple[]"
        }
      ],
      "name": "setAssetAllowances",
      "outputs": [],
      "stateMutability": "nonpayable",
      "type": "function"
    },
    {
      "inputs": [
        {
          "internalType": "uint256",
          "name": "accountId",
          "type": "uint256"
        },
        {
          "internalType": "address",
          "name": "delegate",
          "type": "address"
        },
        {
          "components": [
            {
              "internalType": "contract IAsset",
              "name": "asset",
              "type": "address"
            },
            {
              "internalType": "uint256",
              "name": "subId",
              "type": "uint256"
            },
            {
              "internalType": "uint256",
              "name": "positive",
              "type": "uint256"
            },
            {
              "internalType": "uint256",
              "name": "negative",
              "type": "uint256"
            }
          ],
          "internalType": "struct IAllowances.SubIdAllowance[]",
          "name": "allowances",
          "type": "tuple[]"
        }
      ],
      "name": "setSubIdAllowances",
      "outputs": [],
      "stateMutability": "nonpayable",
      "type": "function"
    },
    {
      "inputs": [
        {
          "components": [
            {
              "internalType": "uint256",
              "name": "fromAcc",
              "type": "uint256"
            },
            {
              "internalType": "uint256",
              "name": "toAcc",
              "type": "uint256"
            },
            {
              "internalType": "contract IAsset",
              "name": "asset",
              "type": "address"
            },
            {
              "internalType": "uint256",
              "name": "subId",
              "type": "uint256"
            },
            {
              "internalType": "int256",
              "name": "amount",
              "type": "int256"
            },
            {
              "internalType": "bytes32",
              "name": "assetData",
              "type": "bytes32"
            }
          ],
          "internalType": "struct ISubAccounts.AssetTransfer",
          "name": "assetTransfer",
          "type": "tuple"
        },
        {
          "internalType": "bytes",
          "name": "managerData",
          "type": "bytes"
        }
      ],
      "name": "submitTransfer",
      "outputs": [
        {
          "internalType": "uint256",
          "name": "tradeId",
          "type": "uint256"
        }
      ],
      "stateMutability": "nonpayable",
      "type": "function"
    },
    {
      "inputs": [
        {
          "components": [
            {
              "internalType": "uint256",
              "name": "fromAcc",
              "type": "uint256"
            },
            {
              "internalType": "uint256",
              "name": "toAcc",
              "type": "uint256"
            },
            {
              "internalType": "contract IAsset",
              "name": "asset",
              "type": "address"
            },
            {
              "internalType": "uint256",
              "name": "subId",
              "type": "uint256"
            },
            {
              "internalType": "int256",
              "name": "amount",
              "type": "int256"
            },
            {
              "internalType": "bytes32",
              "name": "assetData",
              "type": "bytes32"
            }
          ],
          "internalType": "struct ISubAccounts.AssetTransfer[]",
          "name": "assetTransfers",
          "type": "tuple[]"
        },
        {
          "internalType": "bytes",
          "name": "managerData",
          "type": "bytes"
        }
      ],
      "name": "submitTransfers",
      "outputs": [
        {
          "internalType": "uint256",
          "name": "tradeId",
          "type": "uint256"
        }
      ],
      "stateMutability": "nonpayable",
      "type": "function"
    },
    {
      "inputs": [
        {
          "internalType": "bytes4",
          "name": "interfaceId",
          "type": "bytes4"
        }
      ],
      "name": "supportsInterface",
      "outputs": [
        {
          "internalType": "bool",
          "name": "",
          "type": "bool"
        }
      ],
      "stateMutability": "view",
      "type": "function"
    },
    {
      "inputs": [],
      "name": "symbol",
      "outputs": [
        {
          "internalType": "string",
          "name": "",
          "type": "string"
        }
      ],
      "stateMutability": "view",
      "type": "function"
    },
    {
      "inputs": [
        {
          "internalType": "uint256",
          "name": "tokenId",
          "type": "uint256"
        }
      ],
      "name": "tokenURI",
      "outputs": [
        {
          "internalType": "string",
          "name": "",
          "type": "string"
        }
      ],
      "stateMutability": "view",
      "type": "function"
    },
    {
      "inputs": [
        {
          "internalType": "address",
          "name": "from",
          "type": "address"
        },
        {
          "internalType": "address",
          "name": "to",
          "type": "address"
        },
        {
          "internalType": "uint256",
          "name": "tokenId",
          "type": "uint256"
        }
      ],
      "name": "transferFrom",
      "outputs": [],
      "stateMutability": "nonpayable",
      "type": "function"
    }
  ],
  "bytecode": {
    "object": "0x6101406040525f600b555f600c5534801562000019575f80fd5b50604051620050de380380620050de8339810160408190526200003c91620001f2565b604051806040016040528060048152602001634c79726160e01b815250604051806040016040528060018152602001603160f81b81525083838160049081620000869190620002e4565b506005620000958282620002e4565b5050825160209384012082519284019290922060e08390526101008190524660a0818152604080517f8b73c3c69bb8fe3d512ecc4cf759cc79239f7b179b0ffacaa9a75d522b39400f818901819052818301979097526060810194909452608080850193909352308483018190528151808603909301835260c0948501909152815191909601209052929092526101205250506001600a5550620003ac565b634e487b7160e01b5f52604160045260245ffd5b5f82601f83011262000158575f80fd5b81516001600160401b038082111562000175576200017562000134565b604051601f8301601f19908116603f01168101908282118183101715620001a057620001a062000134565b81604052838152602092508683858801011115620001bc575f80fd5b5f91505b83821015620001df5785820183015181830184015290820190620001c0565b5f93810190920192909252949350505050565b5f806040838503121562000204575f80fd5b82516001600160401b03808211156200021b575f80fd5b620002298683870162000148565b935060208501519150808211156200023f575f80fd5b506200024e8582860162000148565b9150509250929050565b600181811c908216806200026d57607f821691505b6020821081036200028c57634e487b7160e01b5f52602260045260245ffd5b50919050565b601f821115620002df575f81815260208120601f850160051c81016020861015620002ba5750805b601f850160051c820191505b81811015620002db57828155600101620002c6565b5050505b505050565b81516001600160401b0381111562000300576200030062000134565b620003188162000311845462000258565b8462000292565b602080601f8311600181146200034e575f8415620003365750858301515b5f19600386901b1c1916600185901b178555620002db565b5f85815260208120601f198616915b828110156200037e578886015182559484019460019091019084016200035d565b50858210156200039c57878501515f19600388901b60f8161c191681555b5050505050600190811b01905550565b60805160a05160c05160e0516101005161012051614cea620003f45f395f61252f01525f61257e01525f61255901525f6124b201525f6124dc01525f6125060152614cea5ff3fe608060405234801561000f575f80fd5b50600436106102b7575f3560e01c80636352211e11610171578063b99b4533116100d2578063daf1a90611610088578063e707e1d01161006e578063e707e1d0146106d7578063e985e9c514610718578063f698da2514610753575f80fd5b8063daf1a906146106b1578063e6e4f5af146106c4575f80fd5b8063c87b56dd116100b8578063c87b56dd14610645578063cdfa628a14610658578063d4d2a69f14610692575f80fd5b8063b99b453314610612578063c756970114610625575f80fd5b8063a22cb46511610127578063a513cab81161010d578063a513cab81461058e578063ad1f3ff8146105ec578063b88d4fde146105ff575f80fd5b8063a22cb4651461053b578063a3b9b6d71461054e575f80fd5b806370a082311161015757806370a082311461050d5780638c9a76d71461052057806395d89b4114610533575f80fd5b80636352211e146104f1578063708c359314610504575f80fd5b80633ff9dcb11161021b5780634fe02b44116101d157806352bcfd5b116101b757806352bcfd5b1461049c57806358e106d5146104a55780635d13e0eb146104b8575f80fd5b80634fe02b441461044a5780635298145714610474575f80fd5b80634997e514116102015780634997e514146103eb57806349a21b37146104245780634fc566ee14610437575f80fd5b80633ff9dcb1146103c557806342842e0e146103d8575f80fd5b8063095ea7b311610270578063133572ba11610256578063133572ba1461037f57806321a8c3af1461039257806323b872dd146103b2575f80fd5b8063095ea7b3146103595780630b1783001461036c575f80fd5b806306fdde03116102a057806306fdde03146102f85780630806e6401461030d578063081812fc1461032e575f80fd5b806301ffc9a7146102bb57806302176d39146102e3575b5f80fd5b6102ce6102c9366004613cc9565b61075b565b60405190151581526020015b60405180910390f35b6102f66102f1366004613e72565b6107ac565b005b610300610850565b6040516102da9190613f14565b61032061031b366004613f26565b6108e0565b6040519081526020016102da565b61034161033c366004613f5b565b610937565b6040516001600160a01b0390911681526020016102da565b6102f6610367366004613f72565b61095c565b61032061037a36600461405c565b610a70565b61032061038d366004614117565b610b08565b6103a56103a0366004613f5b565b610b13565b6040516102da919061414e565b6102f66103c036600461418e565b610b9c565b6102f66103d33660046141bb565b610c13565b6102f66103e636600461418e565b610c73565b6103206103f93660046141db565b600260209081525f948552604080862082529385528385208152918452828420909152825290205481565b6102f6610432366004614241565b610c8d565b6103206104453660046142a5565b610c98565b610320610458366004613f72565b601060209081525f928352604080842090915290825290205481565b610341610482366004613f5b565b600d6020525f90815260409020546001600160a01b031681565b610320600c5481565b6103206104b3366004614346565b610ccd565b6103206104c63660046141db565b600360209081525f948552604080862082529385528385208152918452828420909152825290205481565b6103416104ff366004613f5b565b610cf6565b610320600b5481565b61032061051b3660046143ad565b610d5a565b61032061052e3660046144b8565b610df2565b610300610e79565b6102f661054936600461450b565b610e88565b61032061055c366004614537565b5f6020818152958152604080822087529481528481208652928352838320855290825282822090935291825290205481565b6105cf61059c366004613f26565b600e60209081525f9384526040808520825292845282842090528252902054601d81900b90600160f01b900461ffff1682565b60408051601d9390930b835261ffff9091166020830152016102da565b6103206105fa366004614592565b610e97565b6102f661060d3660046145d5565b610eb7565b61032061062036600461463d565b610f35565b610638610633366004613f5b565b610f9f565b6040516102da9190614657565b610300610653366004613f5b565b611132565b61066b6106663660046141bb565b6111a1565b604080516001600160a01b0390931683526001600160601b039091166020830152016102da565b6103206106a0366004613f5b565b60116020525f908152604090205481565b6102f66106bf366004614788565b6111e6565b6103206106d23660046147d3565b61121c565b6103206106e5366004614537565b600160209081525f9586526040808720825294865284862081529285528385208352908452828420909152825290205481565b6102ce610726366004614117565b6001600160a01b039182165f90815260096020908152604080832093909416825291909152205460ff1690565b610320611233565b5f6001600160e01b031982166380ac58cd60e01b148061078b57506001600160e01b03198216635b5e139f60e01b145b806107a657506301ffc9a760e01b6001600160e01b03198316145b92915050565b33836107b88282611241565b6108305781816107c783610cf6565b5f848152600d60205260409020546001600160a01b03166107e785610937565b60405163a4c6f48b60e01b81526001600160a01b0395861660048201526024810194909452918416604484015283166064830152909116608482015260a4015b60405180910390fd5b5f61083a86610cf6565b905061084886828787611279565b505050505050565b60606004805461085f9061481b565b80601f016020809104026020016040519081016040528092919081815260200182805461088b9061481b565b80156108d65780601f106108ad576101008083540402835291602001916108d6565b820191905f5260205f20905b8154815290600101906020018083116108b957829003601f168201915b5050505050905090565b5f838152600e602090815260408083206001600160a01b03861684528252808320848452825291829020825180840190935254601d81900b808452600160f01b90910461ffff1692909101919091525b9392505050565b5f61094182611453565b505f908152600860205260409020546001600160a01b031690565b5f61096682610cf6565b9050806001600160a01b0316836001600160a01b0316036109d35760405162461bcd60e51b815260206004820152602160248201527f4552433732313a20617070726f76616c20746f2063757272656e74206f776e656044820152603960f91b6064820152608401610827565b336001600160a01b03821614806109ef57506109ef8133610726565b610a615760405162461bcd60e51b815260206004820152603d60248201527f4552433732313a20617070726f76652063616c6c6572206973206e6f7420746f60448201527f6b656e206f776e6572206f7220617070726f76656420666f7220616c6c0000006064820152608401610827565b610a6b83836114b9565b505050565b5f610a79611526565b5f5b84811015610ae357610ad3868683818110610a9857610a9861484d565b9050602002810190610aaa9190614861565b858584818110610abc57610abc61484d565b9050602002810190610ace919061487f565b61157f565b610adc816148d6565b9050610a7b565b50610af08989898961172b565b9050610afc6001600a55565b98975050505050505050565b5f6109308383611aa2565b5f818152600f602090815260408083208054825181850281018501909352808352606094610b959484015b82821015610b8c575f84815260209081902060408051808201909152908401546001600160a01b0381168252600160a01b90046001600160601b031681830152825260019092019101610b3e565b50505050611b2f565b5092915050565b610ba63382611241565b610c085760405162461bcd60e51b815260206004820152602d60248201527f4552433732313a2063616c6c6572206973206e6f7420746f6b656e206f776e6560448201526c1c881bdc88185c1c1c9bdd9959609a1b6064820152608401610827565b610a6b838383611bc5565b335f8181526010602090815260408083208684528252918290208054851790558151928352820184905281018290527ff5b8d10373f7c61b96de50a37accb846b8592b69db427709ef6e99bb6cf70b679060600160405180910390a15050565b610a6b83838360405180602001604052805f815250610eb7565b610a6b83838361157f565b5f610ca1611526565b610cac84848461157f565b610cb7878787611db0565b9050610cc36001600a55565b9695505050505050565b5f610cd6611526565b610ce28585858561172b565b9050610cee6001600a55565b949350505050565b5f818152600660205260408120546001600160a01b0316806107a65760405162461bcd60e51b815260206004820152601860248201527f4552433732313a20696e76616c696420746f6b656e20494400000000000000006044820152606401610827565b5f6001600160a01b038216610dd75760405162461bcd60e51b815260206004820152602960248201527f4552433732313a2061646472657373207a65726f206973206e6f74206120766160448201527f6c6964206f776e657200000000000000000000000000000000000000000000006064820152608401610827565b506001600160a01b03165f9081526007602052604090205490565b60208301515f90336001600160a01b03821614610e2257604051638830ee8360e01b815260040160405180910390fd5b5f600c5f8154610e31906148d6565b918290555090505f610e44878388611e68565b508092508195505050610e6f875f01518333610e698b602001518c604001518761203a565b896120d3565b5050509392505050565b60606005805461085f9061481b565b610e9333838361214b565b5050565b5f610ea0611526565b610eab848484611db0565b90506109306001600a55565b610ec13383611241565b610f235760405162461bcd60e51b815260206004820152602d60248201527f4552433732313a2063616c6c6572206973206e6f7420746f6b656e206f776e6560448201526c1c881bdc88185c1c1c9bdd9959609a1b6064820152608401610827565b610f2f84848484612218565b50505050565b80515f818152600d60205260408120549091906001600160a01b0316338114610f71576040516316e82ce760e21b815260040160405180910390fd5b5f600c5f8154610f80906148d6565b91829055509050610f9385826001611e68565b50909695505050505050565b5f818152600f60205260409020546060908067ffffffffffffffff811115610fc957610fc9613d03565b60405190808252806020026020018201604052801561102457816020015b61101160405180606001604052805f6001600160a01b031681526020015f81526020015f81525090565b815260200190600190039081610fe75790505b5091505f5b8181101561112b575f848152600f602052604081208054839081106110505761105061484d565b5f918252602080832060408051808201825293909101546001600160a01b038082168552600160a01b9091046001600160601b039081168585019081528b8752600e85528387208651841688528552838720815183168852855295839020835180850185529054601d81810b8352600160f01b90910461ffff1682870152845160608101865287519094168452965190911693820193909352825190940b908401528651919350919086908590811061110b5761110b61484d565b602002602001018190525050508080611123906148d6565b915050611029565b5050919050565b606061113d82611453565b5f61115260408051602081019091525f815290565b90505f8151116111705760405180602001604052805f815250610930565b8061117a846122a1565b60405160200161118b9291906148ee565b6040516020818303038152906040529392505050565b600f602052815f5260405f2081815481106111ba575f80fd5b5f918252602090912001546001600160a01b0381169250600160a01b90046001600160601b0316905082565b33836111f28282611241565b6112015781816107c783610cf6565b6112158561120e87610cf6565b868661233e565b5050505050565b5f6112278483611aa2565b905061093083826114b9565b5f61123c6124a6565b905090565b5f61124c83836125cc565b15611259575060016107a6565b505f818152600d60205260409020546001600160a01b0316331492915050565b80515f5b81811015610848578281815181106112975761129761484d565b6020026020010151604001515f808881526020019081526020015f205f876001600160a01b03166001600160a01b031681526020019081526020015f205f8584815181106112e7576112e761484d565b60200260200101515f01516001600160a01b03166001600160a01b031681526020019081526020015f205f8584815181106113245761132461484d565b60200260200101516020015181526020019081526020015f205f866001600160a01b03166001600160a01b031681526020019081526020015f20819055508281815181106113745761137461484d565b60200260200101516060015160015f8881526020019081526020015f205f876001600160a01b03166001600160a01b031681526020019081526020015f205f8584815181106113c5576113c561484d565b60200260200101515f01516001600160a01b03166001600160a01b031681526020019081526020015f205f8584815181106114025761140261484d565b60200260200101516020015181526020019081526020015f205f866001600160a01b03166001600160a01b031681526020019081526020015f2081905550808061144b906148d6565b91505061127d565b5f818152600660205260409020546001600160a01b03166114b65760405162461bcd60e51b815260206004820152601860248201527f4552433732313a20696e76616c696420746f6b656e20494400000000000000006044820152606401610827565b50565b5f81815260086020526040902080546001600160a01b0319166001600160a01b03841690811790915581906114ed82610cf6565b6001600160a01b03167f8c5be1e5ebec7d5bd14f71427d1e84f3dd0314c0f7b2291e5b200ac8c7c3b92560405160405180910390a45050565b6002600a54036115785760405162461bcd60e51b815260206004820152601f60248201527f5265656e7472616e637947756172643a207265656e7472616e742063616c6c006044820152606401610827565b6002600a55565b42836060013510156115a4576040516356c807b760e01b815260040160405180910390fd5b5f6115b28460400135610cf6565b90505f6115c66115c18661491c565b612648565b9050611610826115d583612883565b86868080601f0160208091040260200160405190810160405280939291908181526020018383808284375f920191909152506128cf92505050565b61162d576040516307b56ed960e41b815260040160405180910390fd5b61163b828660200135612a1e565b6116b360408601358361165160208901896143ad565b61165e60808a018a6149b4565b808060200260200160405190810160405280939291908181526020015f905b828210156116a95761169a606083028601368190038101906149f9565b8152602001906001019061167d565b505050505061233e565b6112156040860135836116c960208901896143ad565b6116d660a08a018a614a13565b808060200260200160405190810160405280939291908181526020015f905b828210156117215761171260808302860136819003810190614a59565b815260200190600101906116f5565b5050505050611279565b5f80611738856002614a73565b67ffffffffffffffff81111561175057611750613d03565b604051908082528060200260200182016040528015611779578160200160208202803683370190505b5090505f611788866002614a73565b67ffffffffffffffff8111156117a0576117a0613d03565b6040519080825280602002602001820160405280156117d957816020015b6117c6613c58565b8152602001906001900390816117be5790505b5090505f600c5f81546117eb906148d6565b918290555093505f5b878110156119f85788888281811061180e5761180e61484d565b905060c002015f01355f14801561183f57508888828181106118325761183261484d565b905060c00201602001355f145b6119e8575f8061186a868c8c8681811061185b5761185b61484d565b905060c002015f013586612a7d565b9094509150611895868c8c868181106118855761188561484d565b905060c002016020013586612a7d565b90945090505f806118bd8d8d878181106118b1576118b161484d565b905060c002018a612acc565b9150915061195d60405180606001604052808f8f898181106118e1576118e161484d565b905060c0020160400160208101906118f991906143ad565b6001600160a01b031681526020018f8f898181106119195761191961484d565b905060c00201606001356001600160601b03168152602001848152508886815181106119475761194761484d565b6020026020010151612ccb90919063ffffffff16565b6119e360405180606001604052808f8f8981811061197d5761197d61484d565b905060c00201604001602081019061199591906143ad565b6001600160a01b031681526020018f8f898181106119b5576119b561484d565b905060c00201606001356001600160601b03168152602001838152508885815181106119475761194761484d565b505050505b6119f1816148d6565b90506117f4565b505f5b81811015611a96575f611a26848381518110611a1957611a1961484d565b6020026020010151612e2d565b9050611a83858381518110611a3d57611a3d61484d565b60200260200101518733848c8c8080601f0160208091040260200160405190810160405280939291908181526020018383808284375f920191909152506120d392505050565b5080611a8e816148d6565b9150506119fb565b50505050949350505050565b5f600b5f8154611ab1906148d6565b91829055505f818152600d6020526040902080546001600160a01b0319166001600160a01b0385161790559050611ae88382612ee3565b816001600160a01b031681846001600160a01b03167f32b5641993c697cfd9228343551f8959c18f92052f584f1f103ef0699cd221c860405160405180910390a492915050565b60605f825167ffffffffffffffff811115611b4c57611b4c613d03565b604051908082528060200260200182016040528015611b75578160200160208202803683370190505b5091505f5b8351811015611bbc57611baa83858381518110611b9957611b9961484d565b60200260200101515f015184613078565b9150611bb5816148d6565b9050611b7a565b50808252915091565b826001600160a01b0316611bd882610cf6565b6001600160a01b031614611c3c5760405162461bcd60e51b815260206004820152602560248201527f4552433732313a207472616e736665722066726f6d20696e636f72726563742060448201526437bbb732b960d91b6064820152608401610827565b6001600160a01b038216611c9e5760405162461bcd60e51b8152602060048201526024808201527f4552433732313a207472616e7366657220746f20746865207a65726f206164646044820152637265737360e01b6064820152608401610827565b611cab83838360016130c9565b826001600160a01b0316611cbe82610cf6565b6001600160a01b031614611d225760405162461bcd60e51b815260206004820152602560248201527f4552433732313a207472616e736665722066726f6d20696e636f72726563742060448201526437bbb732b960d91b6064820152608401610827565b5f81815260086020908152604080832080546001600160a01b03199081169091556001600160a01b038781168086526007855283862080545f1901905590871680865283862080546001019055868652600690945282852080549092168417909155905184937fddf252ad1be2c89b69c2b068fc378daa952ba7f163c4a11628f55a4df523b3ef91a4505050565b5f600c5f8154611dbf906148d6565b918290555090505f80611dd28684612acc565b9092509050611e3786358433611dfc611df160608c0160408d016143ad565b8b606001358861203a565b89898080601f0160208091040260200160405190810160405280939291908181526020018383808284375f920191909152506120d392505050565b611e5f60208701358433611dfc611e5460608c0160408d016143ad565b8b606001358761203a565b50509392505050565b82515f908152600e60209081526040808320828701516001600160a01b03168452825280832081870151845282528083208651845260119092528220849055805482918291601d0b8515611ed857611ec28888833361314f565b9095509250611ed18186614a8a565b9350611ef7565b6060880151611ee79082614aa9565b606089015190955093505f841292505b611f0085613223565b82547fffff000000000000000000000000000000000000000000000000000000000000166001600160f01b03919091161782558015801590611f40575084155b15611f635787518254611f5e9190600160f01b900461ffff166132a2565b611fa9565b80158015611f7057508415155b15611fa957611f8b885f015189602001518a604001516133f6565b825461ffff91909116600160f01b026001600160f01b039091161782555b6040888101516020808b01518b515f908152600d8352849020548c5185518a81529384018790529483018a905260608084018d90529190911b6bffffffffffffffffffffffff1916909217926001600160a01b0390921691907f503ec09c1b4597d114eca849f7013c8c457988802d1dc5da49a0c461b5f886589060800160405180910390a4505093509350939050565b6040805160018082528183019092526060915f9190816020015b604080516060810182525f80825260208083018290529282015282525f199092019101816120545790505090506040518060600160405280866001600160a01b03168152602001856001600160601b0316815260200184815250815f815181106120c0576120c061484d565b6020908102919091010152949350505050565b5f858152600d602052604090819020549051639e4c9ebd60e01b81526001600160a01b0390911690639e4c9ebd906121179088908890889088908890600401614ad0565b5f604051808303815f87803b15801561212e575f80fd5b505af1158015612140573d5f803e3d5ffd5b505050505050505050565b816001600160a01b0316836001600160a01b0316036121ac5760405162461bcd60e51b815260206004820152601960248201527f4552433732313a20617070726f766520746f2063616c6c6572000000000000006044820152606401610827565b6001600160a01b038381165f81815260096020908152604080832094871680845294825291829020805460ff191686151590811790915591519182527f17307eab39ab6107e8899845ad3d59bd9653f200f220920489ca2b5937696c31910160405180910390a3505050565b612223848484611bc5565b61222f8484848461348c565b610f2f5760405162461bcd60e51b815260206004820152603260248201527f4552433732313a207472616e7366657220746f206e6f6e20455243373231526560448201527f63656976657220696d706c656d656e74657200000000000000000000000000006064820152608401610827565b60605f6122ad836135dc565b60010190505f8167ffffffffffffffff8111156122cc576122cc613d03565b6040519080825280601f01601f1916602001820160405280156122f6576020820181803683370190505b5090508181016020015b5f19017f3031323334353637383961626364656600000000000000000000000000000000600a86061a8153600a850494508461230057509392505050565b80515f5b818110156108485782818151811061235c5761235c61484d565b60200260200101516020015160025f8881526020019081526020015f205f876001600160a01b03166001600160a01b031681526020019081526020015f205f8584815181106123ad576123ad61484d565b60200260200101515f01516001600160a01b03166001600160a01b031681526020019081526020015f205f866001600160a01b03166001600160a01b031681526020019081526020015f208190555082818151811061240e5761240e61484d565b60200260200101516040015160035f8881526020019081526020015f205f876001600160a01b03166001600160a01b031681526020019081526020015f205f85848151811061245f5761245f61484d565b602090810291909101810151516001600160a01b0390811683528282019390935260409182015f90812093891681529290529020558061249e816148d6565b915050612342565b5f306001600160a01b037f0000000000000000000000000000000000000000000000000000000000000000161480156124fe57507f000000000000000000000000000000000000000000000000000000000000000046145b1561252857507f000000000000000000000000000000000000000000000000000000000000000090565b50604080517f00000000000000000000000000000000000000000000000000000000000000006020808301919091527f0000000000000000000000000000000000000000000000000000000000000000828401527f000000000000000000000000000000000000000000000000000000000000000060608301524660808301523060a0808401919091528351808403909101815260c0909201909252805191012090565b5f806125d783610cf6565b9050806001600160a01b0316846001600160a01b0316148061261d57506001600160a01b038082165f9081526009602090815260408083209388168352929052205460ff165b80610cee5750836001600160a01b031661263684610937565b6001600160a01b031614949350505050565b60808101515160a0820151515f9190828267ffffffffffffffff81111561267157612671613d03565b60405190808252806020026020018201604052801561269a578160200160208202803683370190505b5090505f5b838110156126fa576126cd866080015182815181106126c0576126c061484d565b60200260200101516136bd565b8282815181106126df576126df61484d565b60209081029190910101526126f3816148d6565b905061269f565b505f8267ffffffffffffffff81111561271557612715613d03565b60405190808252806020026020018201604052801561273e578160200160208202803683370190505b5090505f5b8381101561279e576127718760a0015182815181106127645761276461484d565b602002602001015161372e565b8282815181106127835761278361484d565b6020908102919091010152612797816148d6565b9050612743565b507f70d5940fb1a5c6829d2c3655d0d5a62c8a51232dc6a01422e14e874f81956045865f0151876020015188604001518960600151866040516020016127e49190614b68565b604051602081830303815290604052805190602001208660405160200161280b9190614b68565b60408051601f198184030181528282528051602091820120908301989098526001600160a01b03909616958101959095526060850193909352608084019190915260a083015260c082015260e08101919091526101000160405160208183030381529060405280519060200120945050505050919050565b5f6107a661288f6124a6565b8360405161190160f01b602082015260228101839052604281018290525f9060620160405160208183030381529060405280519060200120905092915050565b5f805f6128dc8585613793565b90925090505f8160048111156128f4576128f4614b9d565b1480156129125750856001600160a01b0316826001600160a01b0316145b1561292257600192505050610930565b5f80876001600160a01b0316631626ba7e60e01b8888604051602401612949929190614bb1565b60408051601f198184030181529181526020820180517bffffffffffffffffffffffffffffffffffffffffffffffffffffffff166001600160e01b031990941693909317909252905161299c9190614bc9565b5f60405180830381855afa9150503d805f81146129d4576040519150601f19603f3d011682016040523d82523d5f602084013e6129d9565b606091505b50915091508180156129ec575080516020145b8015610afc57508051630b135d3f60e11b90612a119083016020908101908401614bda565b1498975050505050505050565b6001600160a01b0382165f908152601060209081526040808320600885901c808552925282208054600160ff861690811b918218928390559293909190818316900361084857604051632cb614b360e11b815260040160405180910390fd5b5f805f612a8b8686866137d2565b90508019612abe5784868581518110612aa657612aa661484d565b60209081029190910101525050506001810181612ac4565b83925090505b935093915050565b5f806020840135843503612aff5760405163786025f560e01b815233600482015260208501356024820152604401610827565b6040805160a081018252853581525f916020820190612b2490606089019089016143ad565b6001600160a01b0316815260608701356020820152604001612b496080880135614bf1565b81526020018660a0013581525090505f6040518060a0016040528087602001358152602001876040016020810190612b8191906143ad565b6001600160a01b0316815260608089013560208301526080890135604083015260a089013591015290505f80612bb984886001611e68565b92509250505f80612bcc858a6001611e68565b9250925050828015612be85750612be633875f0151611241565b155b15612c0357612c0386612bfd885f0151610cf6565b33613841565b808015612c1a5750612c1833865f0151611241565b155b15612c2f57612c2f85612bfd875f0151610cf6565b60208a01358a357f5aad14bb846a4654716f2474a7ba1eff7a20526888b58165c7b7bea4737a46c9612c6760608e0160408f016143ad565b8d606001358e608001358f60a001358f604051612cb19594939291906001600160a01b03959095168552602085019390935260408401919091526060830152608082015260a00190565b60405180910390a3509195509093505050505b9250929050565b5f5b6064811015612e1357815f01516001600160a01b031683602001518260648110612cf957612cf961484d565b6020020151516001600160a01b0316148015612d48575081602001516001600160601b031683602001518260648110612d3457612d3461484d565b6020020151602001516001600160601b0316145b15612d8557816040015183602001518260648110612d6857612d6861484d565b6020020151604001818151612d7d9190614aa9565b905250505050565b60208301515f908260648110612d9d57612d9d61484d565b6020020151516001600160a01b0316148015612ddf575082602001518160648110612dca57612dca61484d565b6020020151602001516001600160601b03165f145b15612e0b578183602001518260648110612dfb57612dfb61484d565b6020020152505080516001019052565b600101612ccd565b5060405163f2e268f160e01b815260040160405180910390fd5b60605f825f015167ffffffffffffffff811115612e4c57612e4c613d03565b604051908082528060200260200182016040528015612e9557816020015b604080516060810182525f80825260208083018290529282015282525f19909201910181612e6a5790505b5090505f5b8151811015610b955783602001518160648110612eb957612eb961484d565b6020020151828281518110612ed057612ed061484d565b6020908102919091010152600101612e9a565b6001600160a01b038216612f395760405162461bcd60e51b815260206004820181905260248201527f4552433732313a206d696e7420746f20746865207a65726f20616464726573736044820152606401610827565b5f818152600660205260409020546001600160a01b031615612f9d5760405162461bcd60e51b815260206004820152601c60248201527f4552433732313a20746f6b656e20616c7265616479206d696e746564000000006044820152606401610827565b612faa5f838360016130c9565b5f818152600660205260409020546001600160a01b03161561300e5760405162461bcd60e51b815260206004820152601c60248201527f4552433732313a20746f6b656e20616c7265616479206d696e746564000000006044820152606401610827565b6001600160a01b0382165f81815260076020908152604080832080546001019055848352600690915280822080546001600160a01b0319168417905551839291907fddf252ad1be2c89b69c2b068fc378daa952ba7f163c4a11628f55a4df523b3ef908290a45050565b5f613084848484613943565b19610b9557828483806001019450815181106130a2576130a261484d565b60200260200101906001600160a01b031690816001600160a01b0316815250505092915050565b6001811115610f2f576001600160a01b0384161561310e576001600160a01b0384165f9081526007602052604081208054839290613108908490614c0b565b90915550505b6001600160a01b03831615610f2f576001600160a01b0383165f9081526007602052604081208054839290613144908490614c1e565b909155505050505050565b6020848101805186515f908152600d9093526040808420548151638503eba960e01b81528951600482015293516001600160a01b039081166024860152918901516044850152606089015160648501526080890151608485015260a4840188905260c48401879052811660e48401528481166101048401528392911690638503eba9906101240160408051808303815f875af11580156131f1573d5f803e3d5ffd5b505050506040513d601f19601f820116820180604052508101906132159190614c31565b915091505b94509492505050565b80601d81900b811461329d5760405162461bcd60e51b815260206004820152602760248201527f53616665436173743a2076616c756520646f65736e27742066697420696e203260448201527f34302062697473000000000000000000000000000000000000000000000000006064820152608401610827565b919050565b5f828152600f60205260409020546132bb600182614c0b565b8261ffff16146133bf575f838152600f602052604081206132dd600184614c0b565b815481106132ed576132ed61484d565b5f918252602080832060408051808201825291909301546001600160a01b03811682526001600160601b03600160a01b9091041681830152878452600f90915291208054919250829161ffff861690811061334a5761334a61484d565b5f91825260208083208451948201516001600160601b03908116600160a01b026001600160a01b03968716179190930155878352600e8152604080842086519095168452938152838320948101519091168252929092529020805461ffff8416600160f01b026001600160f01b039091161790555b5f838152600f602052604090208054806133db576133db614c54565b5f8281526020812082015f1990810191909155019055505050565b5f838152600f6020908152604080832081518083019092526001600160a01b0386168252918101613426856139cb565b6001600160601b039081169091528254600181810185555f9485526020808620855195820151909416600160a01b026001600160a01b03909516949094179290910191909155868352600f909152604090912054610cee9161348791614c0b565b613a36565b5f6001600160a01b0384163b156135d457604051630a85bd0160e11b81526001600160a01b0385169063150b7a02906134cf903390899088908890600401614c68565b6020604051808303815f875af1925050508015613509575060408051601f3d908101601f1916820190925261350691810190614c99565b60015b6135ba573d808015613536576040519150601f19603f3d011682016040523d82523d5f602084013e61353b565b606091505b5080515f036135b25760405162461bcd60e51b815260206004820152603260248201527f4552433732313a207472616e7366657220746f206e6f6e20455243373231526560448201527f63656976657220696d706c656d656e74657200000000000000000000000000006064820152608401610827565b805181602001fd5b6001600160e01b031916630a85bd0160e11b149050610cee565b506001610cee565b5f807a184f03e93ff9f4daa797ed6e38ed64bf6a1f0100000000000000008310613624577a184f03e93ff9f4daa797ed6e38ed64bf6a1f010000000000000000830492506040015b6d04ee2d6d415b85acef81000000008310613650576d04ee2d6d415b85acef8100000000830492506020015b662386f26fc10000831061366e57662386f26fc10000830492506010015b6305f5e1008310613686576305f5e100830492506008015b612710831061369a57612710830492506004015b606483106136ac576064830492506002015b600a83106107a65760010192915050565b604080517fce00941d7e1c6bca20b872d8e8b4f7adbc64efcdff14a640f818046af8e4292f60208083019190915283516001600160a01b03168284015283015160608201529082015160808201525f9060a0015b604051602081830303815290604052805190602001209050919050565b604080517fa49b507c25a3937a524e476a942debe3c058a467b1d5e8197a7b81683b85af8460208083019190915283516001600160a01b0316828401528301516060808301919091529183015160808201529082015160a08201525f9060c001613711565b5f8082516041036137c7576020830151604084015160608501515f1a6137bb87828585613a98565b94509450505050612cc4565b505f90506002612cc4565b5f805b82811015613836578481815181106137ef576137ef61484d565b60200260200101515f03613807575f19915050610930565b8385828151811061381a5761381a61484d565b60200260200101510361382e579050610930565b6001016137d5565b505f19949350505050565b82606001515f0361385157505050565b5f836060015113156138cf5782515f818152602081815260408083206001600160a01b03808816808652918452828520848a01805183168752908552838620848b0151875285528386208a51875260028652848720938752928552838620905190911685529092529091206060860151610a6b939291908590613b52565b82515f8181526001602090815260408083206001600160a01b03808816808652918452828520848a01805183168752908552838620848b0151875285528386208a51875260038652848720938752928552838620905190911685529092529091206060860151610a6b939291908590613b52565b5f805b82811015613836575f6001600160a01b031685828151811061396a5761396a61484d565b60200260200101516001600160a01b03160361398a575f19915050610930565b836001600160a01b03168582815181106139a6576139a661484d565b60200260200101516001600160a01b0316036139c3579050610930565b600101613946565b5f6001600160601b03821115613a325760405162461bcd60e51b815260206004820152602660248201527f53616665436173743a2076616c756520646f65736e27742066697420696e203960448201526536206269747360d01b6064820152608401610827565b5090565b5f61ffff821115613a325760405162461bcd60e51b815260206004820152602660248201527f53616665436173743a2076616c756520646f65736e27742066697420696e203160448201526536206269747360d01b6064820152608401610827565b5f807f7fffffffffffffffffffffffffffffff5d576e7357a4501ddfe92f46681b20a0831115613acd57505f9050600361321a565b604080515f8082526020820180845289905260ff881692820192909252606081018690526080810185905260019060a0016020604051602081039080840390855afa158015613b1e573d5f803e3d5ffd5b5050604051601f1901519150506001600160a01b038116613b46575f6001925092505061321a565b965f9650945050505050565b6001600160a01b0382165f9081526020858152604080832054918690528220549091613b7d84613c47565b9050828111613bad57613b908184614c0b565b6001600160a01b0386165f90815260208990526040902055613c3d565b613bb78284614c1e565b8111613c06576001600160a01b0385165f90815260208890526040812055613bdf8382614c0b565b613be99083614c0b565b6001600160a01b0386165f90815260208890526040902055613c3d565b6040516313985a0960e11b81523360048201526024810189905260448101859052606481018490526084810183905260a401610827565b5050505050505050565b5f80821215613a3257815f036107a6565b60405180604001604052805f8152602001613c71613c76565b905290565b60405180610c8001604052806064905b604080516060810182525f80825260208083018290529282015282525f19909201910181613c865790505090565b6001600160e01b0319811681146114b6575f80fd5b5f60208284031215613cd9575f80fd5b813561093081613cb4565b6001600160a01b03811681146114b6575f80fd5b803561329d81613ce4565b634e487b7160e01b5f52604160045260245ffd5b60405160c0810167ffffffffffffffff81118282101715613d3a57613d3a613d03565b60405290565b604051601f8201601f1916810167ffffffffffffffff81118282101715613d6957613d69613d03565b604052919050565b5f67ffffffffffffffff821115613d8a57613d8a613d03565b5060051b60200190565b5f60808284031215613da4575f80fd5b6040516080810181811067ffffffffffffffff82111715613dc757613dc7613d03565b6040529050808235613dd881613ce4565b808252506020830135602082015260408301356040820152606083013560608201525092915050565b5f82601f830112613e10575f80fd5b81356020613e25613e2083613d71565b613d40565b82815260079290921b84018101918181019086841115613e43575f80fd5b8286015b84811015613e6757613e598882613d94565b835291830191608001613e47565b509695505050505050565b5f805f60608486031215613e84575f80fd5b833592506020840135613e9681613ce4565b9150604084013567ffffffffffffffff811115613eb1575f80fd5b613ebd86828701613e01565b9150509250925092565b5f5b83811015613ee1578181015183820152602001613ec9565b50505f910152565b5f8151808452613f00816020860160208601613ec7565b601f01601f19169290920160200192915050565b602081525f6109306020830184613ee9565b5f805f60608486031215613f38575f80fd5b833592506020840135613f4a81613ce4565b929592945050506040919091013590565b5f60208284031215613f6b575f80fd5b5035919050565b5f8060408385031215613f83575f80fd5b8235613f8e81613ce4565b946020939093013593505050565b5f8083601f840112613fac575f80fd5b50813567ffffffffffffffff811115613fc3575f80fd5b60208301915083602060c083028501011115612cc4575f80fd5b5f8083601f840112613fed575f80fd5b50813567ffffffffffffffff811115614004575f80fd5b602083019150836020828501011115612cc4575f80fd5b5f8083601f84011261402b575f80fd5b50813567ffffffffffffffff811115614042575f80fd5b6020830191508360208260051b8501011115612cc4575f80fd5b5f805f805f805f806080898b031215614073575f80fd5b883567ffffffffffffffff8082111561408a575f80fd5b6140968c838d01613f9c565b909a50985060208b01359150808211156140ae575f80fd5b6140ba8c838d01613fdd565b909850965060408b01359150808211156140d2575f80fd5b6140de8c838d0161401b565b909650945060608b01359150808211156140f6575f80fd5b506141038b828c0161401b565b999c989b5096995094979396929594505050565b5f8060408385031215614128575f80fd5b823561413381613ce4565b9150602083013561414381613ce4565b809150509250929050565b602080825282518282018190525f9190848201906040850190845b81811015610f935783516001600160a01b031683529284019291840191600101614169565b5f805f606084860312156141a0575f80fd5b83356141ab81613ce4565b92506020840135613f4a81613ce4565b5f80604083850312156141cc575f80fd5b50508035926020909101359150565b5f805f80608085870312156141ee575f80fd5b84359350602085013561420081613ce4565b9250604085013561421081613ce4565b9150606085013561422081613ce4565b939692955090935050565b5f60c0828403121561423b575f80fd5b50919050565b5f805f60408486031215614253575f80fd5b833567ffffffffffffffff8082111561426a575f80fd5b6142768783880161422b565b9450602086013591508082111561428b575f80fd5b5061429886828701613fdd565b9497909650939450505050565b5f805f805f8061012087890312156142bb575f80fd5b6142c5888861422b565b955060c087013567ffffffffffffffff808211156142e1575f80fd5b6142ed8a838b01613fdd565b909750955060e0890135915080821115614305575f80fd5b6143118a838b0161422b565b9450610100890135915080821115614327575f80fd5b5061433489828a01613fdd565b979a9699509497509295939492505050565b5f805f8060408587031215614359575f80fd5b843567ffffffffffffffff80821115614370575f80fd5b61437c88838901613f9c565b90965094506020870135915080821115614394575f80fd5b506143a187828801613fdd565b95989497509550505050565b5f602082840312156143bd575f80fd5b813561093081613ce4565b5f60a082840312156143d8575f80fd5b60405160a0810181811067ffffffffffffffff821117156143fb576143fb613d03565b60405282358152905080602083013561441381613ce4565b806020830152506040830135604082015260608301356060820152608083013560808201525092915050565b80151581146114b6575f80fd5b5f82601f83011261445b575f80fd5b813567ffffffffffffffff81111561447557614475613d03565b614488601f8201601f1916602001613d40565b81815284602083860101111561449c575f80fd5b816020850160208301375f918101602001919091529392505050565b5f805f60e084860312156144ca575f80fd5b6144d485856143c8565b925060a08401356144e48161443f565b915060c084013567ffffffffffffffff8111156144ff575f80fd5b613ebd8682870161444c565b5f806040838503121561451c575f80fd5b823561452781613ce4565b915060208301356141438161443f565b5f805f805f60a0868803121561454b575f80fd5b85359450602086013561455d81613ce4565b9350604086013561456d81613ce4565b925060608601359150608086013561458481613ce4565b809150509295509295909350565b5f805f60e084860312156145a4575f80fd5b6145ae858561422b565b925060c084013567ffffffffffffffff8111156145c9575f80fd5b61429886828701613fdd565b5f805f80608085870312156145e8575f80fd5b84356145f381613ce4565b9350602085013561460381613ce4565b925060408501359150606085013567ffffffffffffffff811115614625575f80fd5b6146318782880161444c565b91505092959194509250565b5f60a0828403121561464d575f80fd5b61093083836143c8565b602080825282518282018190525f919060409081850190868401855b828110156146ab57815180516001600160a01b0316855286810151878601528501518585015260609093019290850190600101614673565b5091979650505050505050565b5f606082840312156146c8575f80fd5b6040516060810181811067ffffffffffffffff821117156146eb576146eb613d03565b60405290508082356146fc81613ce4565b8082525060208301356020820152604083013560408201525092915050565b5f82601f83011261472a575f80fd5b8135602061473a613e2083613d71565b82815260609283028501820192828201919087851115614758575f80fd5b8387015b8581101561477b5761476e89826146b8565b845292840192810161475c565b5090979650505050505050565b5f805f6060848603121561479a575f80fd5b8335925060208401356147ac81613ce4565b9150604084013567ffffffffffffffff8111156147c7575f80fd5b613ebd8682870161471b565b5f805f606084860312156147e5575f80fd5b83356147f081613ce4565b9250602084013561480081613ce4565b9150604084013561481081613ce4565b809150509250925092565b600181811c9082168061482f57607f821691505b60208210810361423b57634e487b7160e01b5f52602260045260245ffd5b634e487b7160e01b5f52603260045260245ffd5b5f823560be19833603018112614875575f80fd5b9190910192915050565b5f808335601e19843603018112614894575f80fd5b83018035915067ffffffffffffffff8211156148ae575f80fd5b602001915036819003821315612cc4575f80fd5b634e487b7160e01b5f52601160045260245ffd5b5f600182016148e7576148e76148c2565b5060010190565b5f83516148ff818460208801613ec7565b835190830190614913818360208801613ec7565b01949350505050565b5f60c0823603121561492c575f80fd5b614934613d17565b61493d83613cf8565b8152602083013560208201526040830135604082015260608301356060820152608083013567ffffffffffffffff80821115614977575f80fd5b6149833683870161471b565b608084015260a085013591508082111561499b575f80fd5b506149a836828601613e01565b60a08301525092915050565b5f808335601e198436030181126149c9575f80fd5b83018035915067ffffffffffffffff8211156149e3575f80fd5b6020019150606081023603821315612cc4575f80fd5b5f60608284031215614a09575f80fd5b61093083836146b8565b5f808335601e19843603018112614a28575f80fd5b83018035915067ffffffffffffffff821115614a42575f80fd5b6020019150600781901b3603821315612cc4575f80fd5b5f60808284031215614a69575f80fd5b6109308383613d94565b80820281158282048414176107a6576107a66148c2565b8181035f831280158383131683831282161715610b9557610b956148c2565b8082018281125f831280158216821582161715614ac857614ac86148c2565b505092915050565b5f60a082018783526020878185015260406001600160a01b0380891682870152606060a08188015284895180875260c089019150858b0196505f5b81811015614b43578751805186168452878101516001600160601b031688850152860151868401529686019691830191600101614b0b565b50508781036080890152614b57818a613ee9565b9d9c50505050505050505050505050565b81515f9082906020808601845b83811015614b9157815185529382019390820190600101614b75565b50929695505050505050565b634e487b7160e01b5f52602160045260245ffd5b828152604060208201525f610cee6040830184613ee9565b5f8251614875818460208701613ec7565b5f60208284031215614bea575f80fd5b5051919050565b5f600160ff1b8201614c0557614c056148c2565b505f0390565b818103818111156107a6576107a66148c2565b808201808211156107a6576107a66148c2565b5f8060408385031215614c42575f80fd5b8251915060208301516141438161443f565b634e487b7160e01b5f52603160045260245ffd5b5f6001600160a01b03808716835280861660208401525083604083015260806060830152610cc36080830184613ee9565b5f60208284031215614ca9575f80fd5b815161093081613cb456fea264697066735822122058f78fce00db557a584b351168f2404251162f709ec9cea495e36c829b641f7964736f6c63430008140033",
    "linkReferences": {}
  },
  "methodIdentifiers": {
    "approve(address,uint256)": "095ea7b3",
    "assetAdjustment((uint256,address,uint256,int256,bytes32),bool,bytes)": "8c9a76d7",
    "balanceAndOrder(uint256,address,uint256)": "a513cab8",
    "balanceOf(address)": "70a08231",
    "createAccount(address,address)": "133572ba",
    "createAccountWithApproval(address,address,address)": "e6e4f5af",
    "domainSeparator()": "f698da25",
    "getAccountBalances(uint256)": "c7569701",
    "getApproved(uint256)": "081812fc",
    "getBalance(uint256,address,uint256)": "0806e640",
    "getUniqueAssets(uint256)": "21a8c3af",
    "heldAssets(uint256,uint256)": "cdfa628a",
    "invalidateUnorderedNonces(uint256,uint256)": "3ff9dcb1",
    "isApprovedForAll(address,address)": "e985e9c5",
    "lastAccountId()": "708c3593",
    "lastAccountTradeId(uint256)": "d4d2a69f",
    "lastTradeId()": "52bcfd5b",
    "manager(uint256)": "52981457",
    "managerAdjustment((uint256,address,uint256,int256,bytes32))": "b99b4533",
    "name()": "06fdde03",
    "negativeAssetAllowance(uint256,address,address,address)": "5d13e0eb",
    "negativeSubIdAllowance(uint256,address,address,uint256,address)": "e707e1d0",
    "nonceBitmap(address,uint256)": "4fe02b44",
    "ownerOf(uint256)": "6352211e",
    "permit((address,uint256,uint256,uint256,(address,uint256,uint256)[],(address,uint256,uint256,uint256)[]),bytes)": "49a21b37",
    "permitAndSubmitTransfer((uint256,uint256,address,uint256,int256,bytes32),bytes,(address,uint256,uint256,uint256,(address,uint256,uint256)[],(address,uint256,uint256,uint256)[]),bytes)": "4fc566ee",
    "permitAndSubmitTransfers((uint256,uint256,address,uint256,int256,bytes32)[],bytes,(address,uint256,uint256,uint256,(address,uint256,uint256)[],(address,uint256,uint256,uint256)[])[],bytes[])": "0b178300",
    "positiveAssetAllowance(uint256,address,address,address)": "4997e514",
    "positiveSubIdAllowance(uint256,address,address,uint256,address)": "a3b9b6d7",
    "safeTransferFrom(address,address,uint256)": "42842e0e",
    "safeTransferFrom(address,address,uint256,bytes)": "b88d4fde",
    "setApprovalForAll(address,bool)": "a22cb465",
    "setAssetAllowances(uint256,address,(address,uint256,uint256)[])": "daf1a906",
    "setSubIdAllowances(uint256,address,(address,uint256,uint256,uint256)[])": "02176d39",
    "submitTransfer((uint256,uint256,address,uint256,int256,bytes32),bytes)": "ad1f3ff8",
    "submitTransfers((uint256,uint256,address,uint256,int256,bytes32)[],bytes)": "58e106d5",
    "supportsInterface(bytes4)": "01ffc9a7",
    "symbol()": "95d89b41",
    "tokenURI(uint256)": "c87b56dd",
    "transferFrom(address,address,uint256)": "23b872dd"
  },
  "id": 57
}